{
  "_format": "hh-sol-artifact-1",
  "contractName": "BootCampBridge",
  "sourceName": "contracts/BootCampBridge.sol",
  "abi": [
    {
      "inputs": [],
      "stateMutability": "nonpayable",
      "type": "constructor"
    },
    {
      "anonymous": false,
      "inputs": [
        {
          "indexed": true,
          "internalType": "address",
          "name": "owner",
          "type": "address"
        },
        {
          "indexed": true,
          "internalType": "address",
          "name": "approved",
          "type": "address"
        },
        {
          "indexed": true,
          "internalType": "uint256",
          "name": "tokenId",
          "type": "uint256"
        }
      ],
      "name": "Approval",
      "type": "event"
    },
    {
      "anonymous": false,
      "inputs": [
        {
          "indexed": true,
          "internalType": "address",
          "name": "owner",
          "type": "address"
        },
        {
          "indexed": true,
          "internalType": "address",
          "name": "operator",
          "type": "address"
        },
        {
          "indexed": false,
          "internalType": "bool",
          "name": "approved",
          "type": "bool"
        }
      ],
      "name": "ApprovalForAll",
      "type": "event"
    },
    {
      "anonymous": false,
      "inputs": [
        {
          "indexed": true,
          "internalType": "address",
          "name": "previousOwner",
          "type": "address"
        },
        {
          "indexed": true,
          "internalType": "address",
          "name": "newOwner",
          "type": "address"
        }
      ],
      "name": "OwnershipTransferred",
      "type": "event"
    },
    {
      "anonymous": false,
      "inputs": [
        {
          "indexed": true,
          "internalType": "address",
          "name": "from",
          "type": "address"
        },
        {
          "indexed": true,
          "internalType": "address",
          "name": "to",
          "type": "address"
        },
        {
          "indexed": true,
          "internalType": "uint256",
          "name": "tokenId",
          "type": "uint256"
        }
      ],
      "name": "Transfer",
      "type": "event"
    },
    {
      "inputs": [
        {
          "internalType": "address",
          "name": "to",
          "type": "address"
        },
        {
          "internalType": "uint256",
          "name": "tokenId",
          "type": "uint256"
        }
      ],
      "name": "approve",
      "outputs": [],
      "stateMutability": "nonpayable",
      "type": "function"
    },
    {
      "inputs": [
        {
          "internalType": "address",
          "name": "owner",
          "type": "address"
        }
      ],
      "name": "balanceOf",
      "outputs": [
        {
          "internalType": "uint256",
          "name": "",
          "type": "uint256"
        }
      ],
      "stateMutability": "view",
      "type": "function"
    },
    {
      "inputs": [
        {
          "internalType": "uint256",
          "name": "tokenId",
          "type": "uint256"
        }
      ],
      "name": "getApproved",
      "outputs": [
        {
          "internalType": "address",
          "name": "",
          "type": "address"
        }
      ],
      "stateMutability": "view",
      "type": "function"
    },
    {
      "inputs": [
        {
          "internalType": "address",
          "name": "owner",
          "type": "address"
        },
        {
          "internalType": "address",
          "name": "operator",
          "type": "address"
        }
      ],
      "name": "isApprovedForAll",
      "outputs": [
        {
          "internalType": "bool",
          "name": "",
          "type": "bool"
        }
      ],
      "stateMutability": "view",
      "type": "function"
    },
    {
      "inputs": [
        {
          "internalType": "address",
          "name": "_to",
          "type": "address"
        },
        {
          "internalType": "string",
          "name": "_tokenURI",
          "type": "string"
        }
      ],
      "name": "mint",
      "outputs": [],
      "stateMutability": "nonpayable",
      "type": "function"
    },
    {
      "inputs": [],
      "name": "name",
      "outputs": [
        {
          "internalType": "string",
          "name": "",
          "type": "string"
        }
      ],
      "stateMutability": "view",
      "type": "function"
    },
    {
      "inputs": [],
      "name": "nextTokenId",
      "outputs": [
        {
          "internalType": "uint256",
          "name": "",
          "type": "uint256"
        }
      ],
      "stateMutability": "view",
      "type": "function"
    },
    {
      "inputs": [],
      "name": "owner",
      "outputs": [
        {
          "internalType": "address",
          "name": "",
          "type": "address"
        }
      ],
      "stateMutability": "view",
      "type": "function"
    },
    {
      "inputs": [
        {
          "internalType": "uint256",
          "name": "tokenId",
          "type": "uint256"
        }
      ],
      "name": "ownerOf",
      "outputs": [
        {
          "internalType": "address",
          "name": "",
          "type": "address"
        }
      ],
      "stateMutability": "view",
      "type": "function"
    },
    {
      "inputs": [],
      "name": "renounceOwnership",
      "outputs": [],
      "stateMutability": "nonpayable",
      "type": "function"
    },
    {
      "inputs": [
        {
          "internalType": "address",
          "name": "from",
          "type": "address"
        },
        {
          "internalType": "address",
          "name": "to",
          "type": "address"
        },
        {
          "internalType": "uint256",
          "name": "tokenId",
          "type": "uint256"
        }
      ],
      "name": "safeTransferFrom",
      "outputs": [],
      "stateMutability": "nonpayable",
      "type": "function"
    },
    {
      "inputs": [
        {
          "internalType": "address",
          "name": "from",
          "type": "address"
        },
        {
          "internalType": "address",
          "name": "to",
          "type": "address"
        },
        {
          "internalType": "uint256",
          "name": "tokenId",
          "type": "uint256"
        },
        {
          "internalType": "bytes",
          "name": "_data",
          "type": "bytes"
        }
      ],
      "name": "safeTransferFrom",
      "outputs": [],
      "stateMutability": "nonpayable",
      "type": "function"
    },
    {
      "inputs": [
        {
          "internalType": "address",
          "name": "operator",
          "type": "address"
        },
        {
          "internalType": "bool",
          "name": "approved",
          "type": "bool"
        }
      ],
      "name": "setApprovalForAll",
      "outputs": [],
      "stateMutability": "nonpayable",
      "type": "function"
    },
    {
      "inputs": [
        {
          "internalType": "bytes4",
          "name": "interfaceId",
          "type": "bytes4"
        }
      ],
      "name": "supportsInterface",
      "outputs": [
        {
          "internalType": "bool",
          "name": "",
          "type": "bool"
        }
      ],
      "stateMutability": "view",
      "type": "function"
    },
    {
      "inputs": [],
      "name": "symbol",
      "outputs": [
        {
          "internalType": "string",
          "name": "",
          "type": "string"
        }
      ],
      "stateMutability": "view",
      "type": "function"
    },
    {
      "inputs": [
        {
          "internalType": "uint256",
          "name": "tokenId",
          "type": "uint256"
        }
      ],
      "name": "tokenURI",
      "outputs": [
        {
          "internalType": "string",
          "name": "",
          "type": "string"
        }
      ],
      "stateMutability": "view",
      "type": "function"
    },
    {
      "inputs": [
        {
          "internalType": "address",
          "name": "from",
          "type": "address"
        },
        {
          "internalType": "address",
          "name": "to",
          "type": "address"
        },
        {
          "internalType": "uint256",
          "name": "tokenId",
          "type": "uint256"
        }
      ],
      "name": "transferFrom",
      "outputs": [],
      "stateMutability": "nonpayable",
      "type": "function"
    },
    {
      "inputs": [
        {
          "internalType": "address",
          "name": "newOwner",
          "type": "address"
        }
      ],
      "name": "transferOwnership",
      "outputs": [],
      "stateMutability": "nonpayable",
      "type": "function"
    }
  ],
  "bytecode": "0x60806040523480156200001157600080fd5b50604080518082018252601081526f426f6f742043616d702042726964676560801b6020808301918252835180850190945260038452622121a160e91b9084015281519192916200006591600091620000f4565b5080516200007b906001906020840190620000f4565b50505062000098620000926200009e60201b60201c565b620000a2565b620001d7565b3390565b600680546001600160a01b038381166001600160a01b0319831681179093556040519116919082907f8be0079c531659141344cd1fd0a4f28419497f9722a3daafe3b4186f6b6457e090600090a35050565b82805462000102906200019a565b90600052602060002090601f01602090048101928262000126576000855562000171565b82601f106200014157805160ff191683800117855562000171565b8280016001018555821562000171579182015b828111156200017157825182559160200191906001019062000154565b506200017f92915062000183565b5090565b5b808211156200017f576000815560010162000184565b600281046001821680620001af57607f821691505b60208210811415620001d157634e487b7160e01b600052602260045260246000fd5b50919050565b6115d380620001e76000396000f3fe608060405234801561001057600080fd5b50600436106100e65760003560e01c806301ffc9a7146100eb57806306fdde0314610113578063081812fc14610128578063095ea7b31461015357806323b872dd1461016857806342842e0e1461017b5780636352211e1461018e57806370a08231146101a1578063715018a6146101c257806375794a3c146101ca5780638da5cb5b146101d257806395d89b41146101da578063a22cb465146101e2578063b88d4fde146101f5578063c87b56dd14610208578063d0def5211461021b578063e985e9c51461022e578063f2fde38b14610241575b600080fd5b6100fe6100f93660046112f3565b610254565b60405190151581526020015b60405180910390f35b61011b6102a8565b60405161010a91906113cb565b61013b61013636600461132b565b61033a565b6040516001600160a01b03909116815260200161010a565b6101666101613660046112ca565b6103c7565b005b61016661017636600461117f565b6104d8565b61016661018936600461117f565b610509565b61013b61019c36600461132b565b610524565b6101b46101af36600461112c565b61059b565b60405190815260200161010a565b610166610622565b6101b461065d565b61013b610673565b61011b610682565b6101666101f0366004611232565b610691565b6101666102033660046111ba565b6106a0565b61011b61021636600461132b565b6106d8565b61016661022936600461126c565b6107e5565b6100fe61023c36600461114d565b61083c565b61016661024f36600461112c565b61086a565b60006001600160e01b031982166380ac58cd60e01b148061028557506001600160e01b03198216635b5e139f60e01b145b806102a057506301ffc9a760e01b6001600160e01b03198316145b90505b919050565b6060600080546102b7906114e5565b80601f01602080910402602001604051908101604052809291908181526020018280546102e3906114e5565b80156103305780601f1061030557610100808354040283529160200191610330565b820191906000526020600020905b81548152906001019060200180831161031357829003601f168201915b5050505050905090565b60006103458261090a565b6103ab5760405162461bcd60e51b815260206004820152602c60248201527f4552433732313a20617070726f76656420717565727920666f72206e6f6e657860448201526b34b9ba32b73a103a37b5b2b760a11b60648201526084015b60405180910390fd5b506000908152600460205260409020546001600160a01b031690565b60006103d282610524565b9050806001600160a01b0316836001600160a01b031614156104405760405162461bcd60e51b815260206004820152602160248201527f4552433732313a20617070726f76616c20746f2063757272656e74206f776e656044820152603960f91b60648201526084016103a2565b336001600160a01b038216148061045c575061045c813361023c565b6104c95760405162461bcd60e51b815260206004820152603860248201527f4552433732313a20617070726f76652063616c6c6572206973206e6f74206f776044820152771b995c881b9bdc88185c1c1c9bdd995908199bdc88185b1b60421b60648201526084016103a2565b6104d38383610927565b505050565b6104e23382610995565b6104fe5760405162461bcd60e51b81526004016103a290611465565b6104d3838383610a5f565b6104d3838383604051806020016040528060008152506106a0565b6000818152600260205260408120546001600160a01b0316806102a05760405162461bcd60e51b815260206004820152602960248201527f4552433732313a206f776e657220717565727920666f72206e6f6e657869737460448201526832b73a103a37b5b2b760b91b60648201526084016103a2565b60006001600160a01b0382166106065760405162461bcd60e51b815260206004820152602a60248201527f4552433732313a2062616c616e636520717565727920666f7220746865207a65604482015269726f206164647265737360b01b60648201526084016103a2565b506001600160a01b031660009081526003602052604090205490565b3361062b610673565b6001600160a01b0316146106515760405162461bcd60e51b81526004016103a290611430565b61065b6000610be9565b565b6000600854600161066e91906114b6565b905090565b6006546001600160a01b031690565b6060600180546102b7906114e5565b61069c338383610c3b565b5050565b6106aa3383610995565b6106c65760405162461bcd60e51b81526004016103a290611465565b6106d284848484610d06565b50505050565b60606106e38261090a565b6107475760405162461bcd60e51b815260206004820152602f60248201527f4552433732314d657461646174613a2055524920717565727920666f72206e6f60448201526e3732bc34b9ba32b73a103a37b5b2b760891b60648201526084016103a2565b60008281526009602052604090208054610760906114e5565b80601f016020809104026020016040519081016040528092919081815260200182805461078c906114e5565b80156107d95780601f106107ae576101008083540402835291602001916107d9565b820191906000526020600020905b8154815290600101906020018083116107bc57829003601f168201915b50505050509050919050565b336107ee610673565b6001600160a01b0316146108145760405162461bcd60e51b81526004016103a290611430565b600061081e61065d565b905061082a8382610d39565b6108348183610e5a565b6104d3610ee3565b6001600160a01b03918216600090815260056020908152604080832093909416825291909152205460ff1690565b33610873610673565b6001600160a01b0316146108995760405162461bcd60e51b81526004016103a290611430565b6001600160a01b0381166108fe5760405162461bcd60e51b815260206004820152602660248201527f4f776e61626c653a206e6577206f776e657220697320746865207a65726f206160448201526564647265737360d01b60648201526084016103a2565b61090781610be9565b50565b6000908152600260205260409020546001600160a01b0316151590565b600081815260046020526040902080546001600160a01b0319166001600160a01b038416908117909155819061095c82610524565b6001600160a01b03167f8c5be1e5ebec7d5bd14f71427d1e84f3dd0314c0f7b2291e5b200ac8c7c3b92560405160405180910390a45050565b60006109a08261090a565b610a015760405162461bcd60e51b815260206004820152602c60248201527f4552433732313a206f70657261746f7220717565727920666f72206e6f6e657860448201526b34b9ba32b73a103a37b5b2b760a11b60648201526084016103a2565b6000610a0c83610524565b9050806001600160a01b0316846001600160a01b03161480610a475750836001600160a01b0316610a3c8461033a565b6001600160a01b0316145b80610a575750610a57818561083c565b949350505050565b826001600160a01b0316610a7282610524565b6001600160a01b031614610ad65760405162461bcd60e51b815260206004820152602560248201527f4552433732313a207472616e736665722066726f6d20696e636f72726563742060448201526437bbb732b960d91b60648201526084016103a2565b6001600160a01b038216610b385760405162461bcd60e51b8152602060048201526024808201527f4552433732313a207472616e7366657220746f20746865207a65726f206164646044820152637265737360e01b60648201526084016103a2565b610b43600082610927565b6001600160a01b0383166000908152600360205260408120805460019290610b6c9084906114ce565b90915550506001600160a01b0382166000908152600360205260408120805460019290610b9a9084906114b6565b909155505060008181526002602052604080822080546001600160a01b0319166001600160a01b03868116918217909255915184939187169160008051602061157e83398151915291a46104d3565b600680546001600160a01b038381166001600160a01b0319831681179093556040519116919082907f8be0079c531659141344cd1fd0a4f28419497f9722a3daafe3b4186f6b6457e090600090a35050565b816001600160a01b0316836001600160a01b03161415610c995760405162461bcd60e51b815260206004820152601960248201527822a9219b99189d1030b8383937bb32903a379031b0b63632b960391b60448201526064016103a2565b6001600160a01b03838116600081815260056020908152604080832094871680845294825291829020805460ff191686151590811790915591519182527f17307eab39ab6107e8899845ad3d59bd9653f200f220920489ca2b5937696c31910160405180910390a3505050565b610d11848484610a5f565b610d1d84848484610efa565b6106d25760405162461bcd60e51b81526004016103a2906113de565b6001600160a01b038216610d8f5760405162461bcd60e51b815260206004820181905260248201527f4552433732313a206d696e7420746f20746865207a65726f206164647265737360448201526064016103a2565b610d988161090a565b15610de45760405162461bcd60e51b815260206004820152601c60248201527b115490cdcc8c4e881d1bdad95b88185b1c9958591e481b5a5b9d195960221b60448201526064016103a2565b6001600160a01b0382166000908152600360205260408120805460019290610e0d9084906114b6565b909155505060008181526002602052604080822080546001600160a01b0319166001600160a01b038616908117909155905183929060008051602061157e833981519152908290a461069c565b610e638261090a565b610ec45760405162461bcd60e51b815260206004820152602c60248201527f4552433732314d657461646174613a2055524920736574206f66206e6f6e657860448201526b34b9ba32b73a103a37b5b2b760a11b60648201526084016103a2565b600082815260096020908152604090912082516104d392840190611007565b60088054906000610ef383611520565b9190505550565b60006001600160a01b0384163b15610ffc57604051630a85bd0160e11b81526001600160a01b0385169063150b7a0290610f3e90339089908890889060040161138e565b602060405180830381600087803b158015610f5857600080fd5b505af1925050508015610f88575060408051601f3d908101601f19168201909252610f859181019061130f565b60015b610fe2573d808015610fb6576040519150601f19603f3d011682016040523d82523d6000602084013e610fbb565b606091505b508051610fda5760405162461bcd60e51b81526004016103a2906113de565b805181602001fd5b6001600160e01b031916630a85bd0160e11b149050610a57565b506001949350505050565b828054611013906114e5565b90600052602060002090601f016020900481019282611035576000855561107b565b82601f1061104e57805160ff191683800117855561107b565b8280016001018555821561107b579182015b8281111561107b578251825591602001919060010190611060565b5061108792915061108b565b5090565b5b80821115611087576000815560010161108c565b60006001600160401b03808411156110ba576110ba611551565b604051601f8501601f19908116603f011681019082821181831017156110e2576110e2611551565b816040528093508581528686860111156110fb57600080fd5b858560208301376000602087830101525050509392505050565b80356001600160a01b03811681146102a357600080fd5b60006020828403121561113d578081fd5b61114682611115565b9392505050565b6000806040838503121561115f578081fd5b61116883611115565b915061117660208401611115565b90509250929050565b600080600060608486031215611193578081fd5b61119c84611115565b92506111aa60208501611115565b9150604084013590509250925092565b600080600080608085870312156111cf578081fd5b6111d885611115565b93506111e660208601611115565b92506040850135915060608501356001600160401b03811115611207578182fd5b8501601f81018713611217578182fd5b611226878235602084016110a0565b91505092959194509250565b60008060408385031215611244578182fd5b61124d83611115565b915060208301358015158114611261578182fd5b809150509250929050565b6000806040838503121561127e578182fd5b61128783611115565b915060208301356001600160401b038111156112a1578182fd5b8301601f810185136112b1578182fd5b6112c0858235602084016110a0565b9150509250929050565b600080604083850312156112dc578182fd5b6112e583611115565b946020939093013593505050565b600060208284031215611304578081fd5b813561114681611567565b600060208284031215611320578081fd5b815161114681611567565b60006020828403121561133c578081fd5b5035919050565b60008151808452815b818110156113685760208185018101518683018201520161134c565b818111156113795782602083870101525b50601f01601f19169290920160200192915050565b6001600160a01b03858116825284166020820152604081018390526080606082018190526000906113c190830184611343565b9695505050505050565b6000602082526111466020830184611343565b60208082526032908201527f4552433732313a207472616e7366657220746f206e6f6e20455243373231526560408201527131b2b4bb32b91034b6b83632b6b2b73a32b960711b606082015260800190565b6020808252818101527f4f776e61626c653a2063616c6c6572206973206e6f7420746865206f776e6572604082015260600190565b60208082526031908201527f4552433732313a207472616e736665722063616c6c6572206973206e6f74206f6040820152701ddb995c881b9bdc88185c1c1c9bdd9959607a1b606082015260800190565b600082198211156114c9576114c961153b565b500190565b6000828210156114e0576114e061153b565b500390565b6002810460018216806114f957607f821691505b6020821081141561151a57634e487b7160e01b600052602260045260246000fd5b50919050565b60006000198214156115345761153461153b565b5060010190565b634e487b7160e01b600052601160045260246000fd5b634e487b7160e01b600052604160045260246000fd5b6001600160e01b03198116811461090757600080fdfeddf252ad1be2c89b69c2b068fc378daa952ba7f163c4a11628f55a4df523b3efa26469706673582212208048062c5df371e2ef1fa238334122659350e4aaf9e09d73a482fb7aa8620ac464736f6c63430008020033",
  "linkReferences": {},
  "deployedLinkReferences": {}
}